{
  "_format": "hh-sol-artifact-1",
  "contractName": "AssignmentSubmission",
  "sourceName": "contracts/AssignmentSubmission.sol",
  "abi": [
    {
      "inputs": [],
      "stateMutability": "nonpayable",
      "type": "constructor"
    },
    {
      "anonymous": false,
      "inputs": [
        {
          "indexed": true,
          "internalType": "address",
          "name": "student",
          "type": "address"
        },
        {
          "indexed": false,
          "internalType": "string",
          "name": "assignmentHash",
          "type": "string"
        },
        {
          "indexed": false,
          "internalType": "uint256",
          "name": "timestamp",
          "type": "uint256"
        }
      ],
      "name": "SubmissionAdded",
      "type": "event"
    },
    {
      "anonymous": false,
      "inputs": [
        {
          "indexed": true,
          "internalType": "address",
          "name": "student",
          "type": "address"
        },
        {
          "indexed": false,
          "internalType": "string",
          "name": "assignmentHash",
          "type": "string"
        },
        {
          "indexed": false,
          "internalType": "uint256",
          "name": "timestamp",
          "type": "uint256"
        }
      ],
      "name": "SubmissionVerified",
      "type": "event"
    },
    {
      "inputs": [
        {
          "internalType": "address",
          "name": "_educator",
          "type": "address"
        }
      ],
      "name": "addEducator",
      "outputs": [],
      "stateMutability": "nonpayable",
      "type": "function"
    },
    {
      "inputs": [
        {
          "internalType": "address",
          "name": "",
          "type": "address"
        }
      ],
      "name": "educators",
      "outputs": [
        {
          "internalType": "bool",
          "name": "",
          "type": "bool"
        }
      ],
      "stateMutability": "view",
      "type": "function"
    },
    {
      "inputs": [
        {
          "internalType": "uint256",
          "name": "_index",
          "type": "uint256"
        }
      ],
      "name": "getSubmission",
      "outputs": [
        {
          "internalType": "address",
          "name": "",
          "type": "address"
        },
        {
          "internalType": "string",
          "name": "",
          "type": "string"
        },
        {
          "internalType": "uint256",
          "name": "",
          "type": "uint256"
        },
        {
          "internalType": "bool",
          "name": "",
          "type": "bool"
        }
      ],
      "stateMutability": "view",
      "type": "function"
    },
    {
      "inputs": [],
      "name": "getSubmissionsCount",
      "outputs": [
        {
          "internalType": "uint256",
          "name": "",
          "type": "uint256"
        }
      ],
      "stateMutability": "view",
      "type": "function"
    },
    {
      "inputs": [
        {
          "internalType": "uint256",
          "name": "",
          "type": "uint256"
        }
      ],
      "name": "submissions",
      "outputs": [
        {
          "internalType": "address",
          "name": "student",
          "type": "address"
        },
        {
          "internalType": "string",
          "name": "assignmentHash",
          "type": "string"
        },
        {
          "internalType": "uint256",
          "name": "timestamp",
          "type": "uint256"
        },
        {
          "internalType": "bool",
          "name": "verified",
          "type": "bool"
        }
      ],
      "stateMutability": "view",
      "type": "function"
    },
    {
      "inputs": [
        {
          "internalType": "string",
          "name": "_assignmentHash",
          "type": "string"
        }
      ],
      "name": "submitAssignment",
      "outputs": [],
      "stateMutability": "nonpayable",
      "type": "function"
    },
    {
      "inputs": [
        {
          "internalType": "uint256",
          "name": "_index",
          "type": "uint256"
        }
      ],
      "name": "verifySubmission",
      "outputs": [],
      "stateMutability": "nonpayable",
      "type": "function"
    }
  ],
  "bytecode": "0x608060405234801561001057600080fd5b5060018060003373ffffffffffffffffffffffffffffffffffffffff1673ffffffffffffffffffffffffffffffffffffffff16815260200190815260200160002060006101000a81548160ff02191690831515021790555061121d806100776000396000f3fe608060405234801561001057600080fd5b506004361061007d5760003560e01c80634d7e7be41161005b5780634d7e7be4146101035780639c4b65921461011f578063ad73349e1461013b578063df1b6c331461016e5761007d565b80632df7c23c1461008257806336029918146100b25780633e8686cc146100d0575b600080fd5b61009c60048036038101906100979190610933565b61018a565b6040516100a9919061097b565b60405180910390f35b6100ba6101aa565b6040516100c791906109af565b60405180910390f35b6100ea60048036038101906100e591906109f6565b6101b6565b6040516100fa9493929190610ac2565b60405180910390f35b61011d60048036038101906101189190610933565b610365565b005b610139600480360381019061013491906109f6565b61044b565b005b610155600480360381019061015091906109f6565b61068b565b6040516101659493929190610ac2565b60405180910390f35b61018860048036038101906101839190610c43565b610780565b005b60016020528060005260406000206000915054906101000a900460ff1681565b60008080549050905090565b600060606000806000805490508510610204576040517f08c379a00000000000000000000000000000000000000000000000000000000081526004016101fb90610cd8565b60405180910390fd5b600080868154811061021957610218610cf8565b5b90600052602060002090600402016040518060800160405290816000820160009054906101000a900473ffffffffffffffffffffffffffffffffffffffff1673ffffffffffffffffffffffffffffffffffffffff1673ffffffffffffffffffffffffffffffffffffffff16815260200160018201805461029890610d56565b80601f01602080910402602001604051908101604052809291908181526020018280546102c490610d56565b80156103115780601f106102e657610100808354040283529160200191610311565b820191906000526020600020905b8154815290600101906020018083116102f457829003601f168201915b50505050508152602001600282015481526020016003820160009054906101000a900460ff161515151581525050905080600001518160200151826040015183606001519450945094509450509193509193565b600160003373ffffffffffffffffffffffffffffffffffffffff1673ffffffffffffffffffffffffffffffffffffffff16815260200190815260200160002060009054906101000a900460ff166103f1576040517f08c379a00000000000000000000000000000000000000000000000000000000081526004016103e890610df9565b60405180910390fd5b60018060008373ffffffffffffffffffffffffffffffffffffffff1673ffffffffffffffffffffffffffffffffffffffff16815260200190815260200160002060006101000a81548160ff02191690831515021790555050565b600160003373ffffffffffffffffffffffffffffffffffffffff1673ffffffffffffffffffffffffffffffffffffffff16815260200190815260200160002060009054906101000a900460ff166104d7576040517f08c379a00000000000000000000000000000000000000000000000000000000081526004016104ce90610df9565b60405180910390fd5b600080549050811061051e576040517f08c379a000000000000000000000000000000000000000000000000000000000815260040161051590610cd8565b60405180910390fd5b6000818154811061053257610531610cf8565b5b906000526020600020906004020160030160009054906101000a900460ff1615610591576040517f08c379a000000000000000000000000000000000000000000000000000000000815260040161058890610e65565b60405180910390fd5b6001600082815481106105a7576105a6610cf8565b5b906000526020600020906004020160030160006101000a81548160ff021916908315150217905550600081815481106105e3576105e2610cf8565b5b906000526020600020906004020160000160009054906101000a900473ffffffffffffffffffffffffffffffffffffffff1673ffffffffffffffffffffffffffffffffffffffff167f636514e393906df6e3174ebeff9a86b3faea676d1c0e31dc17d0f694c222133b600083815481106106605761065f610cf8565b5b906000526020600020906004020160010142604051610680929190610f1e565b60405180910390a250565b6000818154811061069b57600080fd5b90600052602060002090600402016000915090508060000160009054906101000a900473ffffffffffffffffffffffffffffffffffffffff16908060010180546106e490610d56565b80601f016020809104026020016040519081016040528092919081815260200182805461071090610d56565b801561075d5780601f106107325761010080835404028352916020019161075d565b820191906000526020600020905b81548152906001019060200180831161074057829003601f168201915b5050505050908060020154908060030160009054906101000a900460ff16905084565b600060405180608001604052803373ffffffffffffffffffffffffffffffffffffffff16815260200183815260200142815260200160001515815250908060018154018082558091505060019003906000526020600020906004020160009091909190915060008201518160000160006101000a81548173ffffffffffffffffffffffffffffffffffffffff021916908373ffffffffffffffffffffffffffffffffffffffff160217905550602082015181600101908161084191906110e5565b506040820151816002015560608201518160030160006101000a81548160ff02191690831515021790555050503373ffffffffffffffffffffffffffffffffffffffff167f819c6cdbdd8f31dd7f8112acc976f7942b7b445c1173922770cb7798ad8493f382426040516108b69291906111b7565b60405180910390a250565b6000604051905090565b600080fd5b600080fd5b600073ffffffffffffffffffffffffffffffffffffffff82169050919050565b6000610900826108d5565b9050919050565b610910816108f5565b811461091b57600080fd5b50565b60008135905061092d81610907565b92915050565b600060208284031215610949576109486108cb565b5b60006109578482850161091e565b91505092915050565b60008115159050919050565b61097581610960565b82525050565b6000602082019050610990600083018461096c565b92915050565b6000819050919050565b6109a981610996565b82525050565b60006020820190506109c460008301846109a0565b92915050565b6109d381610996565b81146109de57600080fd5b50565b6000813590506109f0816109ca565b92915050565b600060208284031215610a0c57610a0b6108cb565b5b6000610a1a848285016109e1565b91505092915050565b610a2c816108f5565b82525050565b600081519050919050565b600082825260208201905092915050565b60005b83811015610a6c578082015181840152602081019050610a51565b60008484015250505050565b6000601f19601f8301169050919050565b6000610a9482610a32565b610a9e8185610a3d565b9350610aae818560208601610a4e565b610ab781610a78565b840191505092915050565b6000608082019050610ad76000830187610a23565b8181036020830152610ae98186610a89565b9050610af860408301856109a0565b610b05606083018461096c565b95945050505050565b600080fd5b600080fd5b7f4e487b7100000000000000000000000000000000000000000000000000000000600052604160045260246000fd5b610b5082610a78565b810181811067ffffffffffffffff82111715610b6f57610b6e610b18565b5b80604052505050565b6000610b826108c1565b9050610b8e8282610b47565b919050565b600067ffffffffffffffff821115610bae57610bad610b18565b5b610bb782610a78565b9050602081019050919050565b82818337600083830152505050565b6000610be6610be184610b93565b610b78565b905082815260208101848484011115610c0257610c01610b13565b5b610c0d848285610bc4565b509392505050565b600082601f830112610c2a57610c29610b0e565b5b8135610c3a848260208601610bd3565b91505092915050565b600060208284031215610c5957610c586108cb565b5b600082013567ffffffffffffffff811115610c7757610c766108d0565b5b610c8384828501610c15565b91505092915050565b7f496e76616c6964207375626d697373696f6e20696e6465780000000000000000600082015250565b6000610cc2601883610a3d565b9150610ccd82610c8c565b602082019050919050565b60006020820190508181036000830152610cf181610cb5565b9050919050565b7f4e487b7100000000000000000000000000000000000000000000000000000000600052603260045260246000fd5b7f4e487b7100000000000000000000000000000000000000000000000000000000600052602260045260246000fd5b60006002820490506001821680610d6e57607f821691505b602082108103610d8157610d80610d27565b5b50919050565b7f4f6e6c79206564756361746f72732063616e2063616c6c20746869732066756e60008201527f6374696f6e000000000000000000000000000000000000000000000000000000602082015250565b6000610de3602583610a3d565b9150610dee82610d87565b604082019050919050565b60006020820190508181036000830152610e1281610dd6565b9050919050565b7f5375626d697373696f6e20616c72656164792076657269666965640000000000600082015250565b6000610e4f601b83610a3d565b9150610e5a82610e19565b602082019050919050565b60006020820190508181036000830152610e7e81610e42565b9050919050565b60008190508160005260206000209050919050565b60008154610ea781610d56565b610eb18186610a3d565b94506001821660008114610ecc5760018114610ee257610f15565b60ff198316865281151560200286019350610f15565b610eeb85610e85565b60005b83811015610f0d57815481890152600182019150602081019050610eee565b808801955050505b50505092915050565b60006040820190508181036000830152610f388185610e9a565b9050610f4760208301846109a0565b9392505050565b60006020601f8301049050919050565b600082821b905092915050565b600060088302610f9b7fffffffffffffffffffffffffffffffffffffffffffffffffffffffffffffffff82610f5e565b610fa58683610f5e565b95508019841693508086168417925050509392505050565b6000819050919050565b6000610fe2610fdd610fd884610996565b610fbd565b610996565b9050919050565b6000819050919050565b610ffc83610fc7565b61101061100882610fe9565b848454610f6b565b825550505050565b600090565b611025611018565b611030818484610ff3565b505050565b5b818110156110545761104960008261101d565b600181019050611036565b5050565b601f8211156110995761106a81610e85565b61107384610f4e565b81016020851015611082578190505b61109661108e85610f4e565b830182611035565b50505b505050565b600082821c905092915050565b60006110bc6000198460080261109e565b1980831691505092915050565b60006110d583836110ab565b9150826002028217905092915050565b6110ee82610a32565b67ffffffffffffffff81111561110757611106610b18565b5b6111118254610d56565b61111c828285611058565b600060209050601f83116001811461114f576000841561113d578287015190505b61114785826110c9565b8655506111af565b601f19841661115d86610e85565b60005b8281101561118557848901518255600182019150602085019450602081019050611160565b868310156111a2578489015161119e601f8916826110ab565b8355505b6001600288020188555050505b505050505050565b600060408201905081810360008301526111d18185610a89565b90506111e060208301846109a0565b939250505056fea26469706673582212207627f9639a14a7d18c53414cd14fac8751189767847f9706e3196f0d5fa5997e64736f6c63430008130033",
  "linkReferences": {},
  "deployedLinkReferences": {}
}