{
  "_format": "hh-sol-artifact-1",
  "contractName": "AnonymousFeedback",
  "sourceName": "contracts/AnonymousFeedback.sol",
  "abi": [
    {
      "anonymous": false,
      "inputs": [
        {
          "indexed": true,
          "internalType": "uint256",
          "name": "feedbackId",
          "type": "uint256"
        }
      ],
      "name": "FeedbackSubmitted",
      "type": "event"
    },
    {
      "inputs": [],
      "name": "getAllFeedback",
      "outputs": [
        {
          "internalType": "string[]",
          "name": "",
          "type": "string[]"
        }
      ],
      "stateMutability": "view",
      "type": "function"
    },
    {
      "inputs": [
        {
          "internalType": "uint256",
          "name": "_index",
          "type": "uint256"
        }
      ],
      "name": "getFeedbackByIndex",
      "outputs": [
        {
          "internalType": "string",
          "name": "",
          "type": "string"
        }
      ],
      "stateMutability": "view",
      "type": "function"
    },
    {
      "inputs": [],
      "name": "getFeedbackCount",
      "outputs": [
        {
          "internalType": "uint256",
          "name": "",
          "type": "uint256"
        }
      ],
      "stateMutability": "view",
      "type": "function"
    },
    {
      "inputs": [
        {
          "internalType": "string",
          "name": "_feedback",
          "type": "string"
        }
      ],
      "name": "submitFeedback",
      "outputs": [],
      "stateMutability": "nonpayable",
      "type": "function"
    }
  ],
  "bytecode": "0x608060405234801561001057600080fd5b50610bec806100206000396000f3fe608060405234801561001057600080fd5b506004361061004c5760003560e01c806338c5c86b14610051578063b1049dbe1461006f578063d3b686641461009f578063e341a623146100bd575b600080fd5b6100596100d9565b6040516100669190610388565b60405180910390f35b610089600480360381019061008491906103e3565b6100e5565b60405161009691906104a0565b60405180910390f35b6100a76101dc565b6040516100b491906105ce565b60405180910390f35b6100d760048036038101906100d29190610725565b6102b5565b005b60008080549050905090565b6060600080549050821061012e576040517f08c379a0000000000000000000000000000000000000000000000000000000008152600401610125906107ba565b60405180910390fd5b60008281548110610142576101416107da565b5b90600052602060002001805461015790610838565b80601f016020809104026020016040519081016040528092919081815260200182805461018390610838565b80156101d05780601f106101a5576101008083540402835291602001916101d0565b820191906000526020600020905b8154815290600101906020018083116101b357829003601f168201915b50505050509050919050565b60606000805480602002602001604051908101604052809291908181526020016000905b828210156102ac57838290600052602060002001805461021f90610838565b80601f016020809104026020016040519081016040528092919081815260200182805461024b90610838565b80156102985780601f1061026d57610100808354040283529160200191610298565b820191906000526020600020905b81548152906001019060200180831161027b57829003601f168201915b505050505081526020019060010190610200565b50505050905090565b60008151116102f9576040517f08c379a00000000000000000000000000000000000000000000000000000000081526004016102f0906108b5565b60405180910390fd5b60008190806001815401808255809150506001900390600052602060002001600090919091909150908161032d9190610a81565b5060016000805490506103409190610b82565b7f5db45c6ec0624f40e6f2fb17f59f49ea555fbfdc77902f78199a473bf80914d460405160405180910390a250565b6000819050919050565b6103828161036f565b82525050565b600060208201905061039d6000830184610379565b92915050565b6000604051905090565b600080fd5b600080fd5b6103c08161036f565b81146103cb57600080fd5b50565b6000813590506103dd816103b7565b92915050565b6000602082840312156103f9576103f86103ad565b5b6000610407848285016103ce565b91505092915050565b600081519050919050565b600082825260208201905092915050565b60005b8381101561044a57808201518184015260208101905061042f565b60008484015250505050565b6000601f19601f8301169050919050565b600061047282610410565b61047c818561041b565b935061048c81856020860161042c565b61049581610456565b840191505092915050565b600060208201905081810360008301526104ba8184610467565b905092915050565b600081519050919050565b600082825260208201905092915050565b6000819050602082019050919050565b600082825260208201905092915050565b600061050a82610410565b61051481856104ee565b935061052481856020860161042c565b61052d81610456565b840191505092915050565b600061054483836104ff565b905092915050565b6000602082019050919050565b6000610564826104c2565b61056e81856104cd565b935083602082028501610580856104de565b8060005b858110156105bc578484038952815161059d8582610538565b94506105a88361054c565b925060208a01995050600181019050610584565b50829750879550505050505092915050565b600060208201905081810360008301526105e88184610559565b905092915050565b600080fd5b600080fd5b7f4e487b7100000000000000000000000000000000000000000000000000000000600052604160045260246000fd5b61063282610456565b810181811067ffffffffffffffff82111715610651576106506105fa565b5b80604052505050565b60006106646103a3565b90506106708282610629565b919050565b600067ffffffffffffffff8211156106905761068f6105fa565b5b61069982610456565b9050602081019050919050565b82818337600083830152505050565b60006106c86106c384610675565b61065a565b9050828152602081018484840111156106e4576106e36105f5565b5b6106ef8482856106a6565b509392505050565b600082601f83011261070c5761070b6105f0565b5b813561071c8482602086016106b5565b91505092915050565b60006020828403121561073b5761073a6103ad565b5b600082013567ffffffffffffffff811115610759576107586103b2565b5b610765848285016106f7565b91505092915050565b7f496e646578206f7574206f6620626f756e647300000000000000000000000000600082015250565b60006107a460138361041b565b91506107af8261076e565b602082019050919050565b600060208201905081810360008301526107d381610797565b9050919050565b7f4e487b7100000000000000000000000000000000000000000000000000000000600052603260045260246000fd5b7f4e487b7100000000000000000000000000000000000000000000000000000000600052602260045260246000fd5b6000600282049050600182168061085057607f821691505b60208210810361086357610862610809565b5b50919050565b7f466565646261636b2063616e6e6f7420626520656d7074790000000000000000600082015250565b600061089f60188361041b565b91506108aa82610869565b602082019050919050565b600060208201905081810360008301526108ce81610892565b9050919050565b60008190508160005260206000209050919050565b60006020601f8301049050919050565b600082821b905092915050565b6000600883026109377fffffffffffffffffffffffffffffffffffffffffffffffffffffffffffffffff826108fa565b61094186836108fa565b95508019841693508086168417925050509392505050565b6000819050919050565b600061097e6109796109748461036f565b610959565b61036f565b9050919050565b6000819050919050565b61099883610963565b6109ac6109a482610985565b848454610907565b825550505050565b600090565b6109c16109b4565b6109cc81848461098f565b505050565b5b818110156109f0576109e56000826109b9565b6001810190506109d2565b5050565b601f821115610a3557610a06816108d5565b610a0f846108ea565b81016020851015610a1e578190505b610a32610a2a856108ea565b8301826109d1565b50505b505050565b600082821c905092915050565b6000610a5860001984600802610a3a565b1980831691505092915050565b6000610a718383610a47565b9150826002028217905092915050565b610a8a82610410565b67ffffffffffffffff811115610aa357610aa26105fa565b5b610aad8254610838565b610ab88282856109f4565b600060209050601f831160018114610aeb5760008415610ad9578287015190505b610ae38582610a65565b865550610b4b565b601f198416610af9866108d5565b60005b82811015610b2157848901518255600182019150602085019450602081019050610afc565b86831015610b3e5784890151610b3a601f891682610a47565b8355505b6001600288020188555050505b505050505050565b7f4e487b7100000000000000000000000000000000000000000000000000000000600052601160045260246000fd5b6000610b8d8261036f565b9150610b988361036f565b9250828203905081811115610bb057610baf610b53565b5b9291505056fea2646970667358221220d3564f5c56b84bc5d3ef995ecdeb5560915c53e1c0cefe0ebf7b2e8100aca06364736f6c63430008130033",
  "linkReferences": {},
  "deployedLinkReferences": {}
}