{
  "_format": "hh-sol-artifact-1",
  "contractName": "StudyTracker",
  "sourceName": "contracts/StudyTracker.sol",
  "abi": [
    {
      "inputs": [],
      "name": "getTotalStudyTime",
      "outputs": [
        {
          "internalType": "uint256",
          "name": "",
          "type": "uint256"
        }
      ],
      "stateMutability": "view",
      "type": "function"
    },
    {
      "inputs": [
        {
          "internalType": "uint256",
          "name": "duration",
          "type": "uint256"
        }
      ],
      "name": "recordStudySession",
      "outputs": [],
      "stateMutability": "nonpayable",
      "type": "function"
    },
    {
      "inputs": [
        {
          "internalType": "address",
          "name": "",
          "type": "address"
        }
      ],
      "name": "studyTimes",
      "outputs": [
        {
          "internalType": "uint256",
          "name": "",
          "type": "uint256"
        }
      ],
      "stateMutability": "view",
      "type": "function"
    }
  ],
  "bytecode": "0x608060405234801561001057600080fd5b5061031c806100206000396000f3fe608060405234801561001057600080fd5b50600436106100415760003560e01c806324e37f34146100465780633a71271314610064578063fdaf95ae14610094575b600080fd5b61004e6100b0565b60405161005b919061017f565b60405180910390f35b61007e600480360381019061007991906101fd565b6100f6565b60405161008b919061017f565b60405180910390f35b6100ae60048036038101906100a99190610256565b61010e565b005b60008060003373ffffffffffffffffffffffffffffffffffffffff1673ffffffffffffffffffffffffffffffffffffffff16815260200190815260200160002054905090565b60006020528060005260406000206000915090505481565b806000803373ffffffffffffffffffffffffffffffffffffffff1673ffffffffffffffffffffffffffffffffffffffff168152602001908152602001600020600082825461015c91906102b2565b9250508190555050565b6000819050919050565b61017981610166565b82525050565b60006020820190506101946000830184610170565b92915050565b600080fd5b600073ffffffffffffffffffffffffffffffffffffffff82169050919050565b60006101ca8261019f565b9050919050565b6101da816101bf565b81146101e557600080fd5b50565b6000813590506101f7816101d1565b92915050565b6000602082840312156102135761021261019a565b5b6000610221848285016101e8565b91505092915050565b61023381610166565b811461023e57600080fd5b50565b6000813590506102508161022a565b92915050565b60006020828403121561026c5761026b61019a565b5b600061027a84828501610241565b91505092915050565b7f4e487b7100000000000000000000000000000000000000000000000000000000600052601160045260246000fd5b60006102bd82610166565b91506102c883610166565b92508282019050808211156102e0576102df610283565b5b9291505056fea26469706673582212209ce6e199a0dd93c400f0282f6076fcdabb99cd170fa99737340b88fda802b0c864736f6c63430008130033",
  "linkReferences": {},
  "deployedLinkReferences": {}
}