{
  "_format": "hh-sol-artifact-1",
  "contractName": "ClassPoll",
  "sourceName": "contracts/ClassPoll.sol",
  "abi": [
    {
      "inputs": [],
      "stateMutability": "nonpayable",
      "type": "constructor"
    },
    {
      "inputs": [
        {
          "internalType": "string",
          "name": "_question",
          "type": "string"
        },
        {
          "internalType": "string[]",
          "name": "_options",
          "type": "string[]"
        }
      ],
      "name": "createPoll",
      "outputs": [],
      "stateMutability": "nonpayable",
      "type": "function"
    },
    {
      "inputs": [],
      "name": "currentPoll",
      "outputs": [
        {
          "internalType": "string",
          "name": "question",
          "type": "string"
        }
      ],
      "stateMutability": "view",
      "type": "function"
    },
    {
      "inputs": [],
      "name": "getCurrentPoll",
      "outputs": [
        {
          "components": [
            {
              "internalType": "string",
              "name": "question",
              "type": "string"
            },
            {
              "internalType": "string[]",
              "name": "options",
              "type": "string[]"
            },
            {
              "internalType": "uint256[]",
              "name": "votes",
              "type": "uint256[]"
            }
          ],
          "internalType": "struct ClassPoll.Poll",
          "name": "",
          "type": "tuple"
        }
      ],
      "stateMutability": "view",
      "type": "function"
    },
    {
      "inputs": [],
      "name": "getVoteCounts",
      "outputs": [
        {
          "internalType": "uint256[]",
          "name": "",
          "type": "uint256[]"
        }
      ],
      "stateMutability": "view",
      "type": "function"
    },
    {
      "inputs": [],
      "name": "owner",
      "outputs": [
        {
          "internalType": "address",
          "name": "",
          "type": "address"
        }
      ],
      "stateMutability": "view",
      "type": "function"
    },
    {
      "inputs": [
        {
          "internalType": "uint256",
          "name": "_optionIndex",
          "type": "uint256"
        }
      ],
      "name": "vote",
      "outputs": [],
      "stateMutability": "nonpayable",
      "type": "function"
    }
  ],
  "bytecode": "0x608060405234801561001057600080fd5b5033600360006101000a81548173ffffffffffffffffffffffffffffffffffffffff021916908373ffffffffffffffffffffffffffffffffffffffff160217905550611379806100616000396000f3fe608060405234801561001057600080fd5b50600436106100625760003560e01c80630121b93f146100675780630ccf585914610083578063581efa7a146100a15780637e3d71c3146100bf5780638da5cb5b146100db578063ffc97b20146100f9575b600080fd5b610081600480360381019061007c9190610786565b610117565b005b61008b61019b565b6040516100989190610843565b60405180910390f35b6100a961022f565b6040516100b69190610a8d565b60405180910390f35b6100d960048036038101906100d49190610cca565b61040c565b005b6100e3610573565b6040516100f09190610d83565b60405180910390f35b610101610599565b60405161010e9190610e0d565b60405180910390f35b6000600101805490508110610161576040517f08c379a000000000000000000000000000000000000000000000000000000000815260040161015890610e7b565b60405180910390fd5b6000600201818154811061017857610177610e9b565b5b90600052602060002001600081548092919061019390610ef9565b919050555050565b60008060000180546101ac90610f70565b80601f01602080910402602001604051908101604052809291908181526020018280546101d890610f70565b80156102255780601f106101fa57610100808354040283529160200191610225565b820191906000526020600020905b81548152906001019060200180831161020857829003601f168201915b5050505050905081565b6102376105f4565b600060405180606001604052908160008201805461025490610f70565b80601f016020809104026020016040519081016040528092919081815260200182805461028090610f70565b80156102cd5780601f106102a2576101008083540402835291602001916102cd565b820191906000526020600020905b8154815290600101906020018083116102b057829003601f168201915b5050505050815260200160018201805480602002602001604051908101604052809291908181526020016000905b828210156103a757838290600052602060002001805461031a90610f70565b80601f016020809104026020016040519081016040528092919081815260200182805461034690610f70565b80156103935780601f1061036857610100808354040283529160200191610393565b820191906000526020600020905b81548152906001019060200180831161037657829003601f168201915b5050505050815260200190600101906102fb565b505050508152602001600282018054806020026020016040519081016040528092919081815260200182805480156103fe57602002820191906000526020600020905b8154815260200190600101908083116103ea575b505050505081525050905090565b600360009054906101000a900473ffffffffffffffffffffffffffffffffffffffff1673ffffffffffffffffffffffffffffffffffffffff163373ffffffffffffffffffffffffffffffffffffffff161461049c576040517f08c379a000000000000000000000000000000000000000000000000000000000815260040161049390611013565b60405180910390fd5b60018151116104e0576040517f08c379a00000000000000000000000000000000000000000000000000000000081526004016104d7906110a5565b60405180910390fd5b816000800190816104f19190611271565b50806000600101908051906020019061050b929190610615565b50805167ffffffffffffffff81111561052757610526610ab9565b5b6040519080825280602002602001820160405280156105555781602001602082028036833780820191505090505b506000600201908051906020019061056e92919061066e565b505050565b600360009054906101000a900473ffffffffffffffffffffffffffffffffffffffff1681565b606060006002018054806020026020016040519081016040528092919081815260200182805480156105ea57602002820191906000526020600020905b8154815260200190600101908083116105d6575b5050505050905090565b60405180606001604052806060815260200160608152602001606081525090565b82805482825590600052602060002090810192821561065d579160200282015b8281111561065c57825182908161064c9190611271565b5091602001919060010190610635565b5b50905061066a91906106bb565b5090565b8280548282559060005260206000209081019282156106aa579160200282015b828111156106a957825182559160200191906001019061068e565b5b5090506106b791906106df565b5090565b5b808211156106db57600081816106d291906106fc565b506001016106bc565b5090565b5b808211156106f85760008160009055506001016106e0565b5090565b50805461070890610f70565b6000825580601f1061071a5750610739565b601f01602090049060005260206000209081019061073891906106df565b5b50565b6000604051905090565b600080fd5b600080fd5b6000819050919050565b61076381610750565b811461076e57600080fd5b50565b6000813590506107808161075a565b92915050565b60006020828403121561079c5761079b610746565b5b60006107aa84828501610771565b91505092915050565b600081519050919050565b600082825260208201905092915050565b60005b838110156107ed5780820151818401526020810190506107d2565b60008484015250505050565b6000601f19601f8301169050919050565b6000610815826107b3565b61081f81856107be565b935061082f8185602086016107cf565b610838816107f9565b840191505092915050565b6000602082019050818103600083015261085d818461080a565b905092915050565b600082825260208201905092915050565b6000610881826107b3565b61088b8185610865565b935061089b8185602086016107cf565b6108a4816107f9565b840191505092915050565b600081519050919050565b600082825260208201905092915050565b6000819050602082019050919050565b60006108e78383610876565b905092915050565b6000602082019050919050565b6000610907826108af565b61091181856108ba565b935083602082028501610923856108cb565b8060005b8581101561095f578484038952815161094085826108db565b945061094b836108ef565b925060208a01995050600181019050610927565b50829750879550505050505092915050565b600081519050919050565b600082825260208201905092915050565b6000819050602082019050919050565b6109a681610750565b82525050565b60006109b8838361099d565b60208301905092915050565b6000602082019050919050565b60006109dc82610971565b6109e6818561097c565b93506109f18361098d565b8060005b83811015610a22578151610a0988826109ac565b9750610a14836109c4565b9250506001810190506109f5565b5085935050505092915050565b60006060830160008301518482036000860152610a4c8282610876565b91505060208301518482036020860152610a6682826108fc565b91505060408301518482036040860152610a8082826109d1565b9150508091505092915050565b60006020820190508181036000830152610aa78184610a2f565b905092915050565b600080fd5b600080fd5b7f4e487b7100000000000000000000000000000000000000000000000000000000600052604160045260246000fd5b610af1826107f9565b810181811067ffffffffffffffff82111715610b1057610b0f610ab9565b5b80604052505050565b6000610b2361073c565b9050610b2f8282610ae8565b919050565b600067ffffffffffffffff821115610b4f57610b4e610ab9565b5b610b58826107f9565b9050602081019050919050565b82818337600083830152505050565b6000610b87610b8284610b34565b610b19565b905082815260208101848484011115610ba357610ba2610ab4565b5b610bae848285610b65565b509392505050565b600082601f830112610bcb57610bca610aaf565b5b8135610bdb848260208601610b74565b91505092915050565b600067ffffffffffffffff821115610bff57610bfe610ab9565b5b602082029050602081019050919050565b600080fd5b6000610c28610c2384610be4565b610b19565b90508083825260208201905060208402830185811115610c4b57610c4a610c10565b5b835b81811015610c9257803567ffffffffffffffff811115610c7057610c6f610aaf565b5b808601610c7d8982610bb6565b85526020850194505050602081019050610c4d565b5050509392505050565b600082601f830112610cb157610cb0610aaf565b5b8135610cc1848260208601610c15565b91505092915050565b60008060408385031215610ce157610ce0610746565b5b600083013567ffffffffffffffff811115610cff57610cfe61074b565b5b610d0b85828601610bb6565b925050602083013567ffffffffffffffff811115610d2c57610d2b61074b565b5b610d3885828601610c9c565b9150509250929050565b600073ffffffffffffffffffffffffffffffffffffffff82169050919050565b6000610d6d82610d42565b9050919050565b610d7d81610d62565b82525050565b6000602082019050610d986000830184610d74565b92915050565b600082825260208201905092915050565b6000610dba82610971565b610dc48185610d9e565b9350610dcf8361098d565b8060005b83811015610e00578151610de788826109ac565b9750610df2836109c4565b925050600181019050610dd3565b5085935050505092915050565b60006020820190508181036000830152610e278184610daf565b905092915050565b7f496e76616c6964206f7074696f6e20696e646578000000000000000000000000600082015250565b6000610e656014836107be565b9150610e7082610e2f565b602082019050919050565b60006020820190508181036000830152610e9481610e58565b9050919050565b7f4e487b7100000000000000000000000000000000000000000000000000000000600052603260045260246000fd5b7f4e487b7100000000000000000000000000000000000000000000000000000000600052601160045260246000fd5b6000610f0482610750565b91507fffffffffffffffffffffffffffffffffffffffffffffffffffffffffffffffff8203610f3657610f35610eca565b5b600182019050919050565b7f4e487b7100000000000000000000000000000000000000000000000000000000600052602260045260246000fd5b60006002820490506001821680610f8857607f821691505b602082108103610f9b57610f9a610f41565b5b50919050565b7f4f6e6c7920746865206f776e65722063616e2063616c6c20746869732066756e60008201527f6374696f6e000000000000000000000000000000000000000000000000000000602082015250565b6000610ffd6025836107be565b915061100882610fa1565b604082019050919050565b6000602082019050818103600083015261102c81610ff0565b9050919050565b7f4120706f6c6c206d7573742068617665206174206c656173742074776f206f7060008201527f74696f6e73000000000000000000000000000000000000000000000000000000602082015250565b600061108f6025836107be565b915061109a82611033565b604082019050919050565b600060208201905081810360008301526110be81611082565b9050919050565b60008190508160005260206000209050919050565b60006020601f8301049050919050565b600082821b905092915050565b6000600883026111277fffffffffffffffffffffffffffffffffffffffffffffffffffffffffffffffff826110ea565b61113186836110ea565b95508019841693508086168417925050509392505050565b6000819050919050565b600061116e61116961116484610750565b611149565b610750565b9050919050565b6000819050919050565b61118883611153565b61119c61119482611175565b8484546110f7565b825550505050565b600090565b6111b16111a4565b6111bc81848461117f565b505050565b5b818110156111e0576111d56000826111a9565b6001810190506111c2565b5050565b601f821115611225576111f6816110c5565b6111ff846110da565b8101602085101561120e578190505b61122261121a856110da565b8301826111c1565b50505b505050565b600082821c905092915050565b60006112486000198460080261122a565b1980831691505092915050565b60006112618383611237565b9150826002028217905092915050565b61127a826107b3565b67ffffffffffffffff81111561129357611292610ab9565b5b61129d8254610f70565b6112a88282856111e4565b600060209050601f8311600181146112db57600084156112c9578287015190505b6112d38582611255565b86555061133b565b601f1984166112e9866110c5565b60005b82811015611311578489015182556001820191506020850194506020810190506112ec565b8683101561132e578489015161132a601f891682611237565b8355505b6001600288020188555050505b50505050505056fea264697066735822122010afcabc9f5370a508c15e1475640839fac8862f6935a5bca5b3c6aebe53186e64736f6c63430008130033",
  "linkReferences": {},
  "deployedLinkReferences": {}
}