{
  "_format": "hh-sol-artifact-1",
  "contractName": "StudyGroup",
  "sourceName": "contracts/StudyGroup.sol",
  "abi": [
    {
      "anonymous": false,
      "inputs": [
        {
          "indexed": true,
          "internalType": "address",
          "name": "member",
          "type": "address"
        }
      ],
      "name": "MemberJoined",
      "type": "event"
    },
    {
      "anonymous": false,
      "inputs": [
        {
          "indexed": true,
          "internalType": "address",
          "name": "sender",
          "type": "address"
        },
        {
          "indexed": false,
          "internalType": "string",
          "name": "content",
          "type": "string"
        },
        {
          "indexed": false,
          "internalType": "uint256",
          "name": "timestamp",
          "type": "uint256"
        }
      ],
      "name": "MessageSent",
      "type": "event"
    },
    {
      "inputs": [
        {
          "internalType": "address",
          "name": "_address",
          "type": "address"
        }
      ],
      "name": "getMemberStatus",
      "outputs": [
        {
          "internalType": "bool",
          "name": "",
          "type": "bool"
        }
      ],
      "stateMutability": "view",
      "type": "function"
    },
    {
      "inputs": [],
      "name": "getMessages",
      "outputs": [
        {
          "components": [
            {
              "internalType": "address",
              "name": "sender",
              "type": "address"
            },
            {
              "internalType": "string",
              "name": "content",
              "type": "string"
            },
            {
              "internalType": "uint256",
              "name": "timestamp",
              "type": "uint256"
            }
          ],
          "internalType": "struct StudyGroup.Message[]",
          "name": "",
          "type": "tuple[]"
        }
      ],
      "stateMutability": "view",
      "type": "function"
    },
    {
      "inputs": [],
      "name": "joinGroup",
      "outputs": [],
      "stateMutability": "nonpayable",
      "type": "function"
    },
    {
      "inputs": [
        {
          "internalType": "address",
          "name": "",
          "type": "address"
        }
      ],
      "name": "members",
      "outputs": [
        {
          "internalType": "bool",
          "name": "",
          "type": "bool"
        }
      ],
      "stateMutability": "view",
      "type": "function"
    },
    {
      "inputs": [
        {
          "internalType": "uint256",
          "name": "",
          "type": "uint256"
        }
      ],
      "name": "messages",
      "outputs": [
        {
          "internalType": "address",
          "name": "sender",
          "type": "address"
        },
        {
          "internalType": "string",
          "name": "content",
          "type": "string"
        },
        {
          "internalType": "uint256",
          "name": "timestamp",
          "type": "uint256"
        }
      ],
      "stateMutability": "view",
      "type": "function"
    },
    {
      "inputs": [
        {
          "internalType": "string",
          "name": "_content",
          "type": "string"
        }
      ],
      "name": "sendMessage",
      "outputs": [],
      "stateMutability": "nonpayable",
      "type": "function"
    }
  ],
  "bytecode": "0x608060405234801561001057600080fd5b50611195806100206000396000f3fe608060405234801561001057600080fd5b50600436106100625760003560e01c806308ae4b0c146100675780630d80fefd14610097578063469c8110146100c95780635ff6cbf3146100e55780639ac79e0a14610103578063dde8535f1461010d575b600080fd5b610081600480360381019061007c91906107af565b61013d565b60405161008e91906107f7565b60405180910390f35b6100b160048036038101906100ac9190610848565b61015d565b6040516100c093929190610923565b60405180910390f35b6100e360048036038101906100de9190610a96565b61023f565b005b6100ed61046d565b6040516100fa9190610c59565b60405180910390f35b61010b6105be565b005b610127600480360381019061012291906107af565b6106e7565b60405161013491906107f7565b60405180910390f35b60016020528060005260406000206000915054906101000a900460ff1681565b6000818154811061016d57600080fd5b90600052602060002090600302016000915090508060000160009054906101000a900473ffffffffffffffffffffffffffffffffffffffff16908060010180546101b690610caa565b80601f01602080910402602001604051908101604052809291908181526020018280546101e290610caa565b801561022f5780601f106102045761010080835404028352916020019161022f565b820191906000526020600020905b81548152906001019060200180831161021257829003601f168201915b5050505050908060020154905083565b600160003373ffffffffffffffffffffffffffffffffffffffff1673ffffffffffffffffffffffffffffffffffffffff16815260200190815260200160002060009054906101000a900460ff166102cb576040517f08c379a00000000000000000000000000000000000000000000000000000000081526004016102c290610d4d565b60405180910390fd5b600081511161030f576040517f08c379a000000000000000000000000000000000000000000000000000000000815260040161030690610db9565b60405180910390fd5b61011881511115610355576040517f08c379a000000000000000000000000000000000000000000000000000000000815260040161034c90610e25565b60405180910390fd5b600060405180606001604052803373ffffffffffffffffffffffffffffffffffffffff16815260200183815260200142815250908060018154018082558091505060019003906000526020600020906003020160009091909190915060008201518160000160006101000a81548173ffffffffffffffffffffffffffffffffffffffff021916908373ffffffffffffffffffffffffffffffffffffffff160217905550602082015181600101908161040d9190610ff1565b506040820151816002015550503373ffffffffffffffffffffffffffffffffffffffff167f4816bdd3b9d39acdd4da0ae7412d5523081e916c6a56e481063e475b86ef7c5b82426040516104629291906110c3565b60405180910390a250565b60606000805480602002602001604051908101604052809291908181526020016000905b828210156105b557838290600052602060002090600302016040518060600160405290816000820160009054906101000a900473ffffffffffffffffffffffffffffffffffffffff1673ffffffffffffffffffffffffffffffffffffffff1673ffffffffffffffffffffffffffffffffffffffff16815260200160018201805461051a90610caa565b80601f016020809104026020016040519081016040528092919081815260200182805461054690610caa565b80156105935780601f1061056857610100808354040283529160200191610593565b820191906000526020600020905b81548152906001019060200180831161057657829003601f168201915b5050505050815260200160028201548152505081526020019060010190610491565b50505050905090565b600160003373ffffffffffffffffffffffffffffffffffffffff1673ffffffffffffffffffffffffffffffffffffffff16815260200190815260200160002060009054906101000a900460ff161561064b576040517f08c379a00000000000000000000000000000000000000000000000000000000081526004016106429061113f565b60405180910390fd5b60018060003373ffffffffffffffffffffffffffffffffffffffff1673ffffffffffffffffffffffffffffffffffffffff16815260200190815260200160002060006101000a81548160ff0219169083151502179055503373ffffffffffffffffffffffffffffffffffffffff167f0abf3b3f643594d958297062a019458e27d7766629590ac621aa1000fa1298ab60405160405180910390a2565b6000600160008373ffffffffffffffffffffffffffffffffffffffff1673ffffffffffffffffffffffffffffffffffffffff16815260200190815260200160002060009054906101000a900460ff169050919050565b6000604051905090565b600080fd5b600080fd5b600073ffffffffffffffffffffffffffffffffffffffff82169050919050565b600061077c82610751565b9050919050565b61078c81610771565b811461079757600080fd5b50565b6000813590506107a981610783565b92915050565b6000602082840312156107c5576107c4610747565b5b60006107d38482850161079a565b91505092915050565b60008115159050919050565b6107f1816107dc565b82525050565b600060208201905061080c60008301846107e8565b92915050565b6000819050919050565b61082581610812565b811461083057600080fd5b50565b6000813590506108428161081c565b92915050565b60006020828403121561085e5761085d610747565b5b600061086c84828501610833565b91505092915050565b61087e81610771565b82525050565b600081519050919050565b600082825260208201905092915050565b60005b838110156108be5780820151818401526020810190506108a3565b60008484015250505050565b6000601f19601f8301169050919050565b60006108e682610884565b6108f0818561088f565b93506109008185602086016108a0565b610909816108ca565b840191505092915050565b61091d81610812565b82525050565b60006060820190506109386000830186610875565b818103602083015261094a81856108db565b90506109596040830184610914565b949350505050565b600080fd5b600080fd5b7f4e487b7100000000000000000000000000000000000000000000000000000000600052604160045260246000fd5b6109a3826108ca565b810181811067ffffffffffffffff821117156109c2576109c161096b565b5b80604052505050565b60006109d561073d565b90506109e1828261099a565b919050565b600067ffffffffffffffff821115610a0157610a0061096b565b5b610a0a826108ca565b9050602081019050919050565b82818337600083830152505050565b6000610a39610a34846109e6565b6109cb565b905082815260208101848484011115610a5557610a54610966565b5b610a60848285610a17565b509392505050565b600082601f830112610a7d57610a7c610961565b5b8135610a8d848260208601610a26565b91505092915050565b600060208284031215610aac57610aab610747565b5b600082013567ffffffffffffffff811115610aca57610ac961074c565b5b610ad684828501610a68565b91505092915050565b600081519050919050565b600082825260208201905092915050565b6000819050602082019050919050565b610b1481610771565b82525050565b600082825260208201905092915050565b6000610b3682610884565b610b408185610b1a565b9350610b508185602086016108a0565b610b59816108ca565b840191505092915050565b610b6d81610812565b82525050565b6000606083016000830151610b8b6000860182610b0b565b5060208301518482036020860152610ba38282610b2b565b9150506040830151610bb86040860182610b64565b508091505092915050565b6000610bcf8383610b73565b905092915050565b6000602082019050919050565b6000610bef82610adf565b610bf98185610aea565b935083602082028501610c0b85610afb565b8060005b85811015610c475784840389528151610c288582610bc3565b9450610c3383610bd7565b925060208a01995050600181019050610c0f565b50829750879550505050505092915050565b60006020820190508181036000830152610c738184610be4565b905092915050565b7f4e487b7100000000000000000000000000000000000000000000000000000000600052602260045260246000fd5b60006002820490506001821680610cc257607f821691505b602082108103610cd557610cd4610c7b565b5b50919050565b7f4d7573742062652061206d656d62657220746f2073656e64206d65737361676560008201527f7300000000000000000000000000000000000000000000000000000000000000602082015250565b6000610d3760218361088f565b9150610d4282610cdb565b604082019050919050565b60006020820190508181036000830152610d6681610d2a565b9050919050565b7f4d6573736167652063616e6e6f7420626520656d707479000000000000000000600082015250565b6000610da360178361088f565b9150610dae82610d6d565b602082019050919050565b60006020820190508181036000830152610dd281610d96565b9050919050565b7f4d65737361676520746f6f206c6f6e6700000000000000000000000000000000600082015250565b6000610e0f60108361088f565b9150610e1a82610dd9565b602082019050919050565b60006020820190508181036000830152610e3e81610e02565b9050919050565b60008190508160005260206000209050919050565b60006020601f8301049050919050565b600082821b905092915050565b600060088302610ea77fffffffffffffffffffffffffffffffffffffffffffffffffffffffffffffffff82610e6a565b610eb18683610e6a565b95508019841693508086168417925050509392505050565b6000819050919050565b6000610eee610ee9610ee484610812565b610ec9565b610812565b9050919050565b6000819050919050565b610f0883610ed3565b610f1c610f1482610ef5565b848454610e77565b825550505050565b600090565b610f31610f24565b610f3c818484610eff565b505050565b5b81811015610f6057610f55600082610f29565b600181019050610f42565b5050565b601f821115610fa557610f7681610e45565b610f7f84610e5a565b81016020851015610f8e578190505b610fa2610f9a85610e5a565b830182610f41565b50505b505050565b600082821c905092915050565b6000610fc860001984600802610faa565b1980831691505092915050565b6000610fe18383610fb7565b9150826002028217905092915050565b610ffa82610884565b67ffffffffffffffff8111156110135761101261096b565b5b61101d8254610caa565b611028828285610f64565b600060209050601f83116001811461105b5760008415611049578287015190505b6110538582610fd5565b8655506110bb565b601f19841661106986610e45565b60005b828110156110915784890151825560018201915060208501945060208101905061106c565b868310156110ae57848901516110aa601f891682610fb7565b8355505b6001600288020188555050505b505050505050565b600060408201905081810360008301526110dd81856108db565b90506110ec6020830184610914565b9392505050565b7f416c72656164792061206d656d62657200000000000000000000000000000000600082015250565b600061112960108361088f565b9150611134826110f3565b602082019050919050565b600060208201905081810360008301526111588161111c565b905091905056fea2646970667358221220e49884185571cff2aa94a1cc6dfa455ff5778857d109a2a8b501238755cdd11264736f6c63430008140033",
  "linkReferences": {},
  "deployedLinkReferences": {}
}